:100000000C942A000C943F000C943F000C943F0089
:100010000C943F000C943F000C943F000C943F0064
:100020000C943F000C943F000C943F000C943F0054
:100030000C943F000C943F000C943F000C943F0044
:100040000C943F000C943F000C943F000C943F0034
:100050000C943F0011241FBECFE5D8E0DEBFCDBF1A
:1000600010E0A0E6B0E0E0E2F1E002C005900D9201
:10007000AA36B107D9F70E9441000C948E000C9467
:100080000000CF93DF93CDB7DEB72A970FB6F89471
:10009000DEBF0FBECDBF2AE0E0E6F0E0CE01019664
:1000A000DC0101900D922A95E1F72AB3206F2ABB5B
:1000B000B99A682F792F9E01255F3F4FFC018081FF
:1000C0008295807F8193E217F307C9F7C29A54E0C3
:1000D00042E0E62FF72F8BB38F708BBB9BB38191E0
:1000E000892B8BBB8FEF93EDA0E381509040A04014
:1000F000E1F700C0000088B3852788BB8FEF96E743
:10010000A1E081509040A040E1F700C0000088B31A
:10011000842788BBE217F307F1F6DBCFF894FFCF13
:0A01200000010203040506070809A8
:00000001FF
